:020000020000FC
:0400000006C03FC037
:10000A0060C017C00FED0DBF0FEF07BB00E008BBC4
:10001A000AE701BB0CE702BB05E003BF09ED02BF1B
:10002A0002E009BF02E005BF00E40BBF78947FD06D
:10003A00FFCF09ED02BF933021F4A395A83C08F045
:10004A0097E0939904C0939A949828BB14C0949902
:10005A0009C0949A959838BB913011F4C79A0BC08D
:10006A00C79809C0959904C0959A969848BB03C049
:10007A00969A939818BB1895973091F0933021F07F
:10008A0093E003E005BF1BC099277C5E7C3309F02F
:10009A0012C070E083958A3071F42CD080E00CC0D5
:1000AA0000EF0DBD0EEB0CBD02E809BF05E00EBD69
:1000BA0000E00BBF919A1ED029D002E005BFAA2703
:1000CA00189500EF0DBD0EEB0CBD703019F07A9546
:1000DA001DD01895803029F08A957BE30BD016D075
:1000EA00189502E009BF00E40ABF00E40BBF91982B
:1000FA001ED01895082F13D0052F23D0302F60302B
:10010A0009F46AE0062F1DD0402F0895072F07D063
:10011A00052F17D0102F062F14D0202F08956627E9
:10012A00502F5A301AF05A506395FBCF089570E059
:10013A0081E00BE006D0102F202F302F402F91E0C6
:0A014A0008950EBBE09A0DB308956E
:00000001FF
